{
  "_format": "hh-sol-artifact-1",
  "contractName": "Student",
  "sourceName": "contracts/Student.sol",
  "abi": [
    {
      "inputs": [],
      "name": "getAllStudent",
      "outputs": [
        {
          "components": [
            {
              "internalType": "uint256",
              "name": "id",
              "type": "uint256"
            },
            {
              "internalType": "string",
              "name": "name",
              "type": "string"
            },
            {
              "internalType": "uint256",
              "name": "rollno",
              "type": "uint256"
            },
            {
              "internalType": "bool",
              "name": "isMale",
              "type": "bool"
            },
            {
              "internalType": "uint256",
              "name": "class",
              "type": "uint256"
            }
          ],
          "internalType": "struct Student.StudentStruct[]",
          "name": "",
          "type": "tuple[]"
        }
      ],
      "stateMutability": "view",
      "type": "function"
    },
    {
      "inputs": [
        {
          "internalType": "string",
          "name": "_name",
          "type": "string"
        },
        {
          "internalType": "uint256",
          "name": "_rollno",
          "type": "uint256"
        },
        {
          "internalType": "bool",
          "name": "_isMale",
          "type": "bool"
        },
        {
          "internalType": "uint256",
          "name": "_class",
          "type": "uint256"
        }
      ],
      "name": "registerStudent",
      "outputs": [],
      "stateMutability": "nonpayable",
      "type": "function"
    },
    {
      "inputs": [
        {
          "internalType": "uint256",
          "name": "",
          "type": "uint256"
        }
      ],
      "name": "students",
      "outputs": [
        {
          "internalType": "uint256",
          "name": "id",
          "type": "uint256"
        },
        {
          "internalType": "string",
          "name": "name",
          "type": "string"
        },
        {
          "internalType": "uint256",
          "name": "rollno",
          "type": "uint256"
        },
        {
          "internalType": "bool",
          "name": "isMale",
          "type": "bool"
        },
        {
          "internalType": "uint256",
          "name": "class",
          "type": "uint256"
        }
      ],
      "stateMutability": "view",
      "type": "function"
    }
  ],
  "bytecode": "0x6080604052348015600f57600080fd5b50610c6a8061001f6000396000f3fe608060405234801561001057600080fd5b50600436106100415760003560e01c806306ead22e146100465780630d2962641461007a578063133d046014610096575b600080fd5b610060600480360381019061005b91906103ca565b6100b4565b6040516100719594939291906104b1565b60405180910390f35b610094600480360381019061008f919061066c565b61018f565b005b61009e610256565b6040516100ab919061088f565b60405180910390f35b600081815481106100c457600080fd5b90600052602060002090600502016000915090508060000154908060010180546100ed906108e0565b80601f0160208091040260200160405190810160405280929190818152602001828054610119906108e0565b80156101665780601f1061013b57610100808354040283529160200191610166565b820191906000526020600020905b81548152906001019060200180831161014957829003601f168201915b5050505050908060020154908060030160009054906101000a900460ff16908060040154905085565b60006040518060a0016040528085600a856101aa9190610940565b6101b49190610982565b815260200186815260200185815260200184151581526020018381525090806001815401808255809150506001900390600052602060002090600502016000909190919091506000820151816000015560208201518160010190816102199190610b62565b506040820151816002015560608201518160030160006101000a81548160ff02191690831515021790555060808201518160040155505050505050565b60606000805480602002602001604051908101604052809291908181526020016000905b8282101561037757838290600052602060002090600502016040518060a0016040529081600082015481526020016001820180546102b7906108e0565b80601f01602080910402602001604051908101604052809291908181526020018280546102e3906108e0565b80156103305780601f1061030557610100808354040283529160200191610330565b820191906000526020600020905b81548152906001019060200180831161031357829003601f168201915b50505050508152602001600282015481526020016003820160009054906101000a900460ff161515151581526020016004820154815250508152602001906001019061027a565b50505050905090565b6000604051905090565b600080fd5b600080fd5b6000819050919050565b6103a781610394565b81146103b257600080fd5b50565b6000813590506103c48161039e565b92915050565b6000602082840312156103e0576103df61038a565b5b60006103ee848285016103b5565b91505092915050565b61040081610394565b82525050565b600081519050919050565b600082825260208201905092915050565b60005b83811015610440578082015181840152602081019050610425565b60008484015250505050565b6000601f19601f8301169050919050565b600061046882610406565b6104728185610411565b9350610482818560208601610422565b61048b8161044c565b840191505092915050565b60008115159050919050565b6104ab81610496565b82525050565b600060a0820190506104c660008301886103f7565b81810360208301526104d8818761045d565b90506104e760408301866103f7565b6104f460608301856104a2565b61050160808301846103f7565b9695505050505050565b600080fd5b600080fd5b7f4e487b7100000000000000000000000000000000000000000000000000000000600052604160045260246000fd5b61054d8261044c565b810181811067ffffffffffffffff8211171561056c5761056b610515565b5b80604052505050565b600061057f610380565b905061058b8282610544565b919050565b600067ffffffffffffffff8211156105ab576105aa610515565b5b6105b48261044c565b9050602081019050919050565b82818337600083830152505050565b60006105e36105de84610590565b610575565b9050828152602081018484840111156105ff576105fe610510565b5b61060a8482856105c1565b509392505050565b600082601f8301126106275761062661050b565b5b81356106378482602086016105d0565b91505092915050565b61064981610496565b811461065457600080fd5b50565b60008135905061066681610640565b92915050565b600080600080608085870312156106865761068561038a565b5b600085013567ffffffffffffffff8111156106a4576106a361038f565b5b6106b087828801610612565b94505060206106c1878288016103b5565b93505060406106d287828801610657565b92505060606106e3878288016103b5565b91505092959194509250565b600081519050919050565b600082825260208201905092915050565b6000819050602082019050919050565b61072481610394565b82525050565b600082825260208201905092915050565b600061074682610406565b610750818561072a565b9350610760818560208601610422565b6107698161044c565b840191505092915050565b61077d81610496565b82525050565b600060a08301600083015161079b600086018261071b565b50602083015184820360208601526107b3828261073b565b91505060408301516107c8604086018261071b565b5060608301516107db6060860182610774565b5060808301516107ee608086018261071b565b508091505092915050565b60006108058383610783565b905092915050565b6000602082019050919050565b6000610825826106ef565b61082f81856106fa565b9350836020820285016108418561070b565b8060005b8581101561087d578484038952815161085e85826107f9565b94506108698361080d565b925060208a01995050600181019050610845565b50829750879550505050505092915050565b600060208201905081810360008301526108a9818461081a565b905092915050565b7f4e487b7100000000000000000000000000000000000000000000000000000000600052602260045260246000fd5b600060028204905060018216806108f857607f821691505b60208210810361090b5761090a6108b1565b5b50919050565b7f4e487b7100000000000000000000000000000000000000000000000000000000600052601160045260246000fd5b600061094b82610394565b915061095683610394565b925082820261096481610394565b9150828204841483151761097b5761097a610911565b5b5092915050565b600061098d82610394565b915061099883610394565b92508282019050808211156109b0576109af610911565b5b92915050565b60008190508160005260206000209050919050565b60006020601f8301049050919050565b600082821b905092915050565b600060088302610a187fffffffffffffffffffffffffffffffffffffffffffffffffffffffffffffffff826109db565b610a2286836109db565b95508019841693508086168417925050509392505050565b6000819050919050565b6000610a5f610a5a610a5584610394565b610a3a565b610394565b9050919050565b6000819050919050565b610a7983610a44565b610a8d610a8582610a66565b8484546109e8565b825550505050565b600090565b610aa2610a95565b610aad818484610a70565b505050565b5b81811015610ad157610ac6600082610a9a565b600181019050610ab3565b5050565b601f821115610b1657610ae7816109b6565b610af0846109cb565b81016020851015610aff578190505b610b13610b0b856109cb565b830182610ab2565b50505b505050565b600082821c905092915050565b6000610b3960001984600802610b1b565b1980831691505092915050565b6000610b528383610b28565b9150826002028217905092915050565b610b6b82610406565b67ffffffffffffffff811115610b8457610b83610515565b5b610b8e82546108e0565b610b99828285610ad5565b600060209050601f831160018114610bcc5760008415610bba578287015190505b610bc48582610b46565b865550610c2c565b601f198416610bda866109b6565b60005b82811015610c0257848901518255600182019150602085019450602081019050610bdd565b86831015610c1f5784890151610c1b601f891682610b28565b8355505b6001600288020188555050505b50505050505056fea2646970667358221220784b7702833e9145e9ec5c6871f929269f6023bbeb9cf476e3affcc9c7f49c9364736f6c634300081c0033",
  "linkReferences": {},
  "deployedLinkReferences": {}
}