{
  "_format": "hh-sol-artifact-1",
  "contractName": "Student",
  "sourceName": "contracts/Student.sol",
  "abi": [
    {
      "inputs": [],
      "name": "getAllStudent",
      "outputs": [
        {
          "components": [
            {
              "internalType": "uint256",
              "name": "id",
              "type": "uint256"
            },
            {
              "internalType": "string",
              "name": "name",
              "type": "string"
            },
            {
              "internalType": "uint256",
              "name": "rollno",
              "type": "uint256"
            },
            {
              "internalType": "bool",
              "name": "isMale",
              "type": "bool"
            },
            {
              "internalType": "uint256",
              "name": "class",
              "type": "uint256"
            }
          ],
          "internalType": "struct Student.StudentStruct[]",
          "name": "",
          "type": "tuple[]"
        }
      ],
      "stateMutability": "view",
      "type": "function"
    },
    {
      "inputs": [],
      "name": "getName",
      "outputs": [
        {
          "internalType": "string",
          "name": "",
          "type": "string"
        }
      ],
      "stateMutability": "pure",
      "type": "function"
    },
    {
      "inputs": [
        {
          "internalType": "string",
          "name": "_name",
          "type": "string"
        },
        {
          "internalType": "uint256",
          "name": "_rollno",
          "type": "uint256"
        },
        {
          "internalType": "bool",
          "name": "_isMale",
          "type": "bool"
        },
        {
          "internalType": "uint256",
          "name": "_class",
          "type": "uint256"
        }
      ],
      "name": "registerStudent",
      "outputs": [],
      "stateMutability": "nonpayable",
      "type": "function"
    },
    {
      "inputs": [
        {
          "internalType": "uint256",
          "name": "",
          "type": "uint256"
        }
      ],
      "name": "students",
      "outputs": [
        {
          "internalType": "uint256",
          "name": "id",
          "type": "uint256"
        },
        {
          "internalType": "string",
          "name": "name",
          "type": "string"
        },
        {
          "internalType": "uint256",
          "name": "rollno",
          "type": "uint256"
        },
        {
          "internalType": "bool",
          "name": "isMale",
          "type": "bool"
        },
        {
          "internalType": "uint256",
          "name": "class",
          "type": "uint256"
        }
      ],
      "stateMutability": "view",
      "type": "function"
    },
    {
      "inputs": [],
      "name": "tt",
      "outputs": [
        {
          "internalType": "uint256",
          "name": "",
          "type": "uint256"
        }
      ],
      "stateMutability": "view",
      "type": "function"
    }
  ],
  "bytecode": "0x60806040526006600155348015601457600080fd5b50610d3c806100246000396000f3fe608060405234801561001057600080fd5b50600436106100575760003560e01c806306ead22e1461005c5780630d29626414610090578063133d0460146100ac57806317d7de7c146100ca5780631e36169e146100e8575b600080fd5b6100766004803603810190610071919061045f565b610106565b604051610087959493929190610546565b60405180910390f35b6100aa60048036038101906100a59190610701565b6101e1565b005b6100b46102a8565b6040516100c19190610924565b60405180910390f35b6100d26103d2565b6040516100df9190610946565b60405180910390f35b6100f061040f565b6040516100fd9190610968565b60405180910390f35b6000818154811061011657600080fd5b906000526020600020906005020160009150905080600001549080600101805461013f906109b2565b80601f016020809104026020016040519081016040528092919081815260200182805461016b906109b2565b80156101b85780601f1061018d576101008083540402835291602001916101b8565b820191906000526020600020905b81548152906001019060200180831161019b57829003601f168201915b5050505050908060020154908060030160009054906101000a900460ff16908060040154905085565b60006040518060a0016040528085600a856101fc9190610a12565b6102069190610a54565b8152602001868152602001858152602001841515815260200183815250908060018154018082558091505060019003906000526020600020906005020160009091909190915060008201518160000155602082015181600101908161026b9190610c34565b506040820151816002015560608201518160030160006101000a81548160ff02191690831515021790555060808201518160040155505050505050565b60606000805480602002602001604051908101604052809291908181526020016000905b828210156103c957838290600052602060002090600502016040518060a001604052908160008201548152602001600182018054610309906109b2565b80601f0160208091040260200160405190810160405280929190818152602001828054610335906109b2565b80156103825780601f1061035757610100808354040283529160200191610382565b820191906000526020600020905b81548152906001019060200180831161036557829003601f168201915b50505050508152602001600282015481526020016003820160009054906101000a900460ff16151515158152602001600482015481525050815260200190600101906102cc565b50505050905090565b60606040518060400160405280600381526020017f72656d0000000000000000000000000000000000000000000000000000000000815250905090565b60015481565b6000604051905090565b600080fd5b600080fd5b6000819050919050565b61043c81610429565b811461044757600080fd5b50565b60008135905061045981610433565b92915050565b6000602082840312156104755761047461041f565b5b60006104838482850161044a565b91505092915050565b61049581610429565b82525050565b600081519050919050565b600082825260208201905092915050565b60005b838110156104d55780820151818401526020810190506104ba565b60008484015250505050565b6000601f19601f8301169050919050565b60006104fd8261049b565b61050781856104a6565b93506105178185602086016104b7565b610520816104e1565b840191505092915050565b60008115159050919050565b6105408161052b565b82525050565b600060a08201905061055b600083018861048c565b818103602083015261056d81876104f2565b905061057c604083018661048c565b6105896060830185610537565b610596608083018461048c565b9695505050505050565b600080fd5b600080fd5b7f4e487b7100000000000000000000000000000000000000000000000000000000600052604160045260246000fd5b6105e2826104e1565b810181811067ffffffffffffffff82111715610601576106006105aa565b5b80604052505050565b6000610614610415565b905061062082826105d9565b919050565b600067ffffffffffffffff8211156106405761063f6105aa565b5b610649826104e1565b9050602081019050919050565b82818337600083830152505050565b600061067861067384610625565b61060a565b905082815260208101848484011115610694576106936105a5565b5b61069f848285610656565b509392505050565b600082601f8301126106bc576106bb6105a0565b5b81356106cc848260208601610665565b91505092915050565b6106de8161052b565b81146106e957600080fd5b50565b6000813590506106fb816106d5565b92915050565b6000806000806080858703121561071b5761071a61041f565b5b600085013567ffffffffffffffff81111561073957610738610424565b5b610745878288016106a7565b94505060206107568782880161044a565b9350506040610767878288016106ec565b92505060606107788782880161044a565b91505092959194509250565b600081519050919050565b600082825260208201905092915050565b6000819050602082019050919050565b6107b981610429565b82525050565b600082825260208201905092915050565b60006107db8261049b565b6107e581856107bf565b93506107f58185602086016104b7565b6107fe816104e1565b840191505092915050565b6108128161052b565b82525050565b600060a08301600083015161083060008601826107b0565b506020830151848203602086015261084882826107d0565b915050604083015161085d60408601826107b0565b5060608301516108706060860182610809565b50608083015161088360808601826107b0565b508091505092915050565b600061089a8383610818565b905092915050565b6000602082019050919050565b60006108ba82610784565b6108c4818561078f565b9350836020820285016108d6856107a0565b8060005b8581101561091257848403895281516108f3858261088e565b94506108fe836108a2565b925060208a019950506001810190506108da565b50829750879550505050505092915050565b6000602082019050818103600083015261093e81846108af565b905092915050565b6000602082019050818103600083015261096081846104f2565b905092915050565b600060208201905061097d600083018461048c565b92915050565b7f4e487b7100000000000000000000000000000000000000000000000000000000600052602260045260246000fd5b600060028204905060018216806109ca57607f821691505b6020821081036109dd576109dc610983565b5b50919050565b7f4e487b7100000000000000000000000000000000000000000000000000000000600052601160045260246000fd5b6000610a1d82610429565b9150610a2883610429565b9250828202610a3681610429565b91508282048414831517610a4d57610a4c6109e3565b5b5092915050565b6000610a5f82610429565b9150610a6a83610429565b9250828201905080821115610a8257610a816109e3565b5b92915050565b60008190508160005260206000209050919050565b60006020601f8301049050919050565b600082821b905092915050565b600060088302610aea7fffffffffffffffffffffffffffffffffffffffffffffffffffffffffffffffff82610aad565b610af48683610aad565b95508019841693508086168417925050509392505050565b6000819050919050565b6000610b31610b2c610b2784610429565b610b0c565b610429565b9050919050565b6000819050919050565b610b4b83610b16565b610b5f610b5782610b38565b848454610aba565b825550505050565b600090565b610b74610b67565b610b7f818484610b42565b505050565b5b81811015610ba357610b98600082610b6c565b600181019050610b85565b5050565b601f821115610be857610bb981610a88565b610bc284610a9d565b81016020851015610bd1578190505b610be5610bdd85610a9d565b830182610b84565b50505b505050565b600082821c905092915050565b6000610c0b60001984600802610bed565b1980831691505092915050565b6000610c248383610bfa565b9150826002028217905092915050565b610c3d8261049b565b67ffffffffffffffff811115610c5657610c556105aa565b5b610c6082546109b2565b610c6b828285610ba7565b600060209050601f831160018114610c9e5760008415610c8c578287015190505b610c968582610c18565b865550610cfe565b601f198416610cac86610a88565b60005b82811015610cd457848901518255600182019150602085019450602081019050610caf565b86831015610cf15784890151610ced601f891682610bfa565b8355505b6001600288020188555050505b50505050505056fea26469706673582212208dfe6b60a20115998074c4e6a210d360fa48f19bf3ffe6049ee7aed35ecd884864736f6c634300081c0033",
  "linkReferences": {},
  "deployedLinkReferences": {}
}