{
  "_format": "hh-sol-artifact-1",
  "contractName": "Student",
  "sourceName": "contracts/Student.sol",
  "abi": [
    {
      "inputs": [],
      "name": "getAllStudent",
      "outputs": [
        {
          "components": [
            {
              "internalType": "uint256",
              "name": "id",
              "type": "uint256"
            },
            {
              "internalType": "string",
              "name": "name",
              "type": "string"
            },
            {
              "internalType": "uint256",
              "name": "rollno",
              "type": "uint256"
            },
            {
              "internalType": "bool",
              "name": "isMale",
              "type": "bool"
            },
            {
              "internalType": "uint256",
              "name": "class",
              "type": "uint256"
            }
          ],
          "internalType": "struct Student.StudentStruct[]",
          "name": "",
          "type": "tuple[]"
        }
      ],
      "stateMutability": "view",
      "type": "function"
    },
    {
      "inputs": [],
      "name": "getName",
      "outputs": [
        {
          "internalType": "string",
          "name": "",
          "type": "string"
        }
      ],
      "stateMutability": "pure",
      "type": "function"
    },
    {
      "inputs": [
        {
          "internalType": "string",
          "name": "_name",
          "type": "string"
        },
        {
          "internalType": "uint256",
          "name": "_rollno",
          "type": "uint256"
        },
        {
          "internalType": "bool",
          "name": "_isMale",
          "type": "bool"
        },
        {
          "internalType": "uint256",
          "name": "_class",
          "type": "uint256"
        }
      ],
      "name": "registerStudent",
      "outputs": [],
      "stateMutability": "nonpayable",
      "type": "function"
    },
    {
      "inputs": [
        {
          "internalType": "uint256",
          "name": "",
          "type": "uint256"
        }
      ],
      "name": "students",
      "outputs": [
        {
          "internalType": "uint256",
          "name": "id",
          "type": "uint256"
        },
        {
          "internalType": "string",
          "name": "name",
          "type": "string"
        },
        {
          "internalType": "uint256",
          "name": "rollno",
          "type": "uint256"
        },
        {
          "internalType": "bool",
          "name": "isMale",
          "type": "bool"
        },
        {
          "internalType": "uint256",
          "name": "class",
          "type": "uint256"
        }
      ],
      "stateMutability": "view",
      "type": "function"
    }
  ],
  "bytecode": "0x6080604052348015600f57600080fd5b50610fa58061001f6000396000f3fe608060405234801561001057600080fd5b506004361061004c5760003560e01c806306ead22e146100515780630d29626414610085578063133d0460146100a157806317d7de7c146100bf575b600080fd5b61006b60048036038101906100669190610535565b6100dd565b60405161007c95949392919061061c565b60405180910390f35b61009f600480360381019061009a91906107d7565b6101b8565b005b6100a9610384565b6040516100b691906109fa565b60405180910390f35b6100c76104ae565b6040516100d49190610a1c565b60405180910390f35b600081815481106100ed57600080fd5b906000526020600020906005020160009150905080600001549080600101805461011690610a6d565b80601f016020809104026020016040519081016040528092919081815260200182805461014290610a6d565b801561018f5780601f106101645761010080835404028352916020019161018f565b820191906000526020600020905b81548152906001019060200180831161017257829003601f168201915b5050505050908060020154908060030160009054906101000a900460ff16908060040154905085565b838360005b6000805490508110156102ba5781600082815481106101df576101de610a9e565b5b90600052602060002090600502016002015414801561026d57508260405160200161020a9190610b09565b604051602081830303815290604052805190602001206000828154811061023457610233610a9e565b5b90600052602060002090600502016001016040516020016102559190610bb8565b60405160208183030381529060405280519060200120145b156102ad576040517f08c379a00000000000000000000000000000000000000000000000000000000081526004016102a490610c41565b60405180910390fd5b80806001019150506101bd565b5060006040518060a0016040528087600a876102d69190610c90565b6102e09190610cd2565b815260200188815260200187815260200186151581526020018581525090806001815401808255809150506001900390600052602060002090600502016000909190919091506000820151816000015560208201518160010190816103459190610e9d565b506040820151816002015560608201518160030160006101000a81548160ff021916908315150217905550608082015181600401555050505050505050565b60606000805480602002602001604051908101604052809291908181526020016000905b828210156104a557838290600052602060002090600502016040518060a0016040529081600082015481526020016001820180546103e590610a6d565b80601f016020809104026020016040519081016040528092919081815260200182805461041190610a6d565b801561045e5780601f106104335761010080835404028352916020019161045e565b820191906000526020600020905b81548152906001019060200180831161044157829003601f168201915b50505050508152602001600282015481526020016003820160009054906101000a900460ff16151515158152602001600482015481525050815260200190600101906103a8565b50505050905090565b60606040518060400160405280600381526020017f72656d0000000000000000000000000000000000000000000000000000000000815250905090565b6000604051905090565b600080fd5b600080fd5b6000819050919050565b610512816104ff565b811461051d57600080fd5b50565b60008135905061052f81610509565b92915050565b60006020828403121561054b5761054a6104f5565b5b600061055984828501610520565b91505092915050565b61056b816104ff565b82525050565b600081519050919050565b600082825260208201905092915050565b60005b838110156105ab578082015181840152602081019050610590565b60008484015250505050565b6000601f19601f8301169050919050565b60006105d382610571565b6105dd818561057c565b93506105ed81856020860161058d565b6105f6816105b7565b840191505092915050565b60008115159050919050565b61061681610601565b82525050565b600060a0820190506106316000830188610562565b818103602083015261064381876105c8565b90506106526040830186610562565b61065f606083018561060d565b61066c6080830184610562565b9695505050505050565b600080fd5b600080fd5b7f4e487b7100000000000000000000000000000000000000000000000000000000600052604160045260246000fd5b6106b8826105b7565b810181811067ffffffffffffffff821117156106d7576106d6610680565b5b80604052505050565b60006106ea6104eb565b90506106f682826106af565b919050565b600067ffffffffffffffff82111561071657610715610680565b5b61071f826105b7565b9050602081019050919050565b82818337600083830152505050565b600061074e610749846106fb565b6106e0565b90508281526020810184848401111561076a5761076961067b565b5b61077584828561072c565b509392505050565b600082601f83011261079257610791610676565b5b81356107a284826020860161073b565b91505092915050565b6107b481610601565b81146107bf57600080fd5b50565b6000813590506107d1816107ab565b92915050565b600080600080608085870312156107f1576107f06104f5565b5b600085013567ffffffffffffffff81111561080f5761080e6104fa565b5b61081b8782880161077d565b945050602061082c87828801610520565b935050604061083d878288016107c2565b925050606061084e87828801610520565b91505092959194509250565b600081519050919050565b600082825260208201905092915050565b6000819050602082019050919050565b61088f816104ff565b82525050565b600082825260208201905092915050565b60006108b182610571565b6108bb8185610895565b93506108cb81856020860161058d565b6108d4816105b7565b840191505092915050565b6108e881610601565b82525050565b600060a0830160008301516109066000860182610886565b506020830151848203602086015261091e82826108a6565b91505060408301516109336040860182610886565b50606083015161094660608601826108df565b5060808301516109596080860182610886565b508091505092915050565b600061097083836108ee565b905092915050565b6000602082019050919050565b60006109908261085a565b61099a8185610865565b9350836020820285016109ac85610876565b8060005b858110156109e857848403895281516109c98582610964565b94506109d483610978565b925060208a019950506001810190506109b0565b50829750879550505050505092915050565b60006020820190508181036000830152610a148184610985565b905092915050565b60006020820190508181036000830152610a3681846105c8565b905092915050565b7f4e487b7100000000000000000000000000000000000000000000000000000000600052602260045260246000fd5b60006002820490506001821680610a8557607f821691505b602082108103610a9857610a97610a3e565b5b50919050565b7f4e487b7100000000000000000000000000000000000000000000000000000000600052603260045260246000fd5b600081905092915050565b6000610ae382610571565b610aed8185610acd565b9350610afd81856020860161058d565b80840191505092915050565b6000610b158284610ad8565b915081905092915050565b60008190508160005260206000209050919050565b60008154610b4281610a6d565b610b4c8186610acd565b94506001821660008114610b675760018114610b7c57610baf565b60ff1983168652811515820286019350610baf565b610b8585610b20565b60005b83811015610ba757815481890152600182019150602081019050610b88565b838801955050505b50505092915050565b6000610bc48284610b35565b915081905092915050565b7f53747564656e7420776974682074686973206e616d6520616e6420726f6c6c6e60008201527f6f20697320616c72656164792072656769737465726564000000000000000000602082015250565b6000610c2b60378361057c565b9150610c3682610bcf565b604082019050919050565b60006020820190508181036000830152610c5a81610c1e565b9050919050565b7f4e487b7100000000000000000000000000000000000000000000000000000000600052601160045260246000fd5b6000610c9b826104ff565b9150610ca6836104ff565b9250828202610cb4816104ff565b91508282048414831517610ccb57610cca610c61565b5b5092915050565b6000610cdd826104ff565b9150610ce8836104ff565b9250828201905080821115610d0057610cff610c61565b5b92915050565b60006020601f8301049050919050565b600082821b905092915050565b600060088302610d537fffffffffffffffffffffffffffffffffffffffffffffffffffffffffffffffff82610d16565b610d5d8683610d16565b95508019841693508086168417925050509392505050565b6000819050919050565b6000610d9a610d95610d90846104ff565b610d75565b6104ff565b9050919050565b6000819050919050565b610db483610d7f565b610dc8610dc082610da1565b848454610d23565b825550505050565b600090565b610ddd610dd0565b610de8818484610dab565b505050565b5b81811015610e0c57610e01600082610dd5565b600181019050610dee565b5050565b601f821115610e5157610e2281610b20565b610e2b84610d06565b81016020851015610e3a578190505b610e4e610e4685610d06565b830182610ded565b50505b505050565b600082821c905092915050565b6000610e7460001984600802610e56565b1980831691505092915050565b6000610e8d8383610e63565b9150826002028217905092915050565b610ea682610571565b67ffffffffffffffff811115610ebf57610ebe610680565b5b610ec98254610a6d565b610ed4828285610e10565b600060209050601f831160018114610f075760008415610ef5578287015190505b610eff8582610e81565b865550610f67565b601f198416610f1586610b20565b60005b82811015610f3d57848901518255600182019150602085019450602081019050610f18565b86831015610f5a5784890151610f56601f891682610e63565b8355505b6001600288020188555050505b50505050505056fea2646970667358221220206433341d9ab9f5d98ea35fa561ff3011c8d4b5c56cd9a0f33c7e2c38b9371864736f6c634300081c0033",
  "linkReferences": {},
  "deployedLinkReferences": {}
}